:020000040000FA
:100000000C945D000C9485000C9485000C94850084
:100010000C9485000C9485000C9485000C9485004C
:100020000C9485000C9485000C9485000C9485003C
:100030000C9485000C9485000C9485000C9485002C
:100040000C940A060C9485000C94D8050C94B20507
:100050000C9485000C9485000C9485000C9485000C
:100060000C9454060C948500000000080002010066
:100070000003040700000000000000000000000072
:10008000250028002B0000000000240027002A0083
:10009000040404040404040402020202020203032E
:1000A0000303030301020408102040800102040836
:1000B0001020010204081020730711241FBECFEF87
:1000C000D8E0DEBFCDBF11E0A0E0B1E0E8ECF7E1A1
:1000D00002C005900D92A43AB107D9F723E0A4EA33
:1000E000B1E001C01D92A434B207E1F710E0CDE504
:1000F000D0E004C02197FE010E94DC0BCC35D10773
:10010000C9F70E94BE070C94E20B0C940000E5E5D1
:10011000F2E0A089B18982E08C93A485B5851C9218
:10012000A685B78580E18C93108EA489B58986E079
:100130008C93A289B3898C9180618C93A289B389B5
:100140008C9188608C93A289B3898C9180688C9300
:100150000288F389E02D80818F7D8083089590E06F
:10016000FC01EC55FF4F249180579F4FFC01849177
:10017000882399F090E0880F991FFC01EA57FF4F00
:10018000A591B491FC01E458FF4F859194918FB7EC
:10019000F894EC91E22BEC938FBF0895AF92BF924D
:1001A000CF92DF92EF92FF920F931F93CF93DF9343
:1001B0006C017B018B01040F151FEB015E01AE1872
:1001C000BF08C017D10759F06991D601ED91FC9194
:1001D0000190F081E02DC6010995892B79F7C501C1
:1001E000DF91CF911F910F91FF90EF90DF90CF9013
:1001F000BF90AF9008950895E0914F02F0915002A2
:10020000309729F010924A021092490209940895F9
:10021000CF93DF93AC01E0914D02F0914E02309705
:10022000F1F090914C0280914B029817C0F090E051
:10023000292F30E02617370754F4D901A455BE4FB3
:10024000240F351FE90128812C939F5FF1CF109275
:100250004C0260934B02CB01DF91CF910994DF9167
:10026000CF910895FC01538D448D252F30E0842FCC
:1002700090E0821B930B541710F0CF9608950197CE
:100280000895FC01918D828D981761F0A28DAE0FBB
:10029000BF2FB11D5D968C91928D9F5F9F73928F42
:1002A00090E008958FEF9FEF0895FC01918D828D6E
:1002B000981731F0828DE80FF11D858D90E008953B
:1002C0008FEF9FEF0895FC01918D228D892F90E093
:1002D000805C9F4F821B91098F739927089585E554
:1002E00092E00E94630121E0892B09F420E0822F33
:1002F000089580E090E0892B29F00E946F01811120
:100300000C9400000895FC01A48DA80FB92FB11D15
:10031000A35ABF4F2C91848D90E001968F7399273B
:10032000848FA689B7892C93A089B1898C91837019
:1003300080648C93938D848D981306C00288F38912
:10034000E02D80818F7D80830895EF92FF920F933F
:100350001F93CF93DF93EC0181E0888F9B8D8C8D71
:1003600098131AC0E889F989808185FF15C09FB765
:10037000F894EE89FF896083E889F9898081837028
:10038000806480839FBF81E090E0DF91CF911F91D7
:100390000F91FF90EF900895F62E0B8D10E00F5FF8
:1003A0001F4F0F731127E02E8C8D8E110CC00FB6CE
:1003B00007FCFACFE889F989808185FFF5CFCE0166
:1003C0000E948301F1CFEB8DEC0FFD2FF11DE35A5D
:1003D000FF4FF0829FB7F8940B8FEA89FB898081E9
:1003E0008062CFCFCF93DF93EC01888D8823B9F063
:1003F000AA89BB89E889F9898C9185FD03C0808130
:1004000086FD0DC00FB607FCF7CF8C9185FFF2CFAC
:10041000808185FFEDCFCE010E948301E9CFDF917E
:10042000CF91089590E0FC01E859FF4F2491FC0121
:10043000EC55FF4F3491FC01E057FF4FE491EE2360
:10044000C9F0222339F0233001F1A8F4213019F149
:10045000223029F1F0E0EE0FFF1FE458FF4FA59185
:10046000B4918FB7F894EC91611126C030953E237A
:100470003C938FBF08952730A9F02830C9F024306D
:1004800049F7809180008F7D03C0809180008F7735
:1004900080938000DFCF84B58F7784BDDBCF84B5B8
:1004A0008F7DFBCF8091B0008F778093B000D2CF4B
:1004B0008091B0008F7DF9CF3E2BDACF1F93CF9381
:1004C000DF93182FEB010E94AF00209739F460E012
:1004D000812FDF91CF911F910C941202CF3FD10554
:1004E00011F461E0F5CFE12FF0E0E859FF4FE4911E
:1004F000E33031F140F4E130B1F0E230E1F0C03806
:10050000D1057CF7E4CFE73029F1E83059F1E43048
:10051000B1F780918000806280938000D0938B003F
:10052000C0938A0004C084B5806884BDC7BDDF91D4
:10053000CF911F91089584B5806284BDC8BDF7CF67
:1005400080918000806880938000D0938900C09360
:100550008800EDCF8091B00080688093B000C09398
:10056000B300E5CF8091B00080628093B000C0936B
:10057000B400DDCF3FB7F8948091410290914202E0
:10058000A0914302B091440226B5A89B05C02F3F1D
:1005900019F00196A11DB11D3FBFBA2FA92F982FA9
:1005A0008827BC01CD01620F711D811D911D42E0A4
:1005B000660F771F881F991F4A95D1F708952FB7A7
:1005C000F89460913D0270913E0280913F029091BB
:1005D00040022FBF08952091F201260F3327331FC9
:1005E00021323105ECF420911602FC0190E080E00C
:1005F000243069F082E00895A091F2012191AC01CC
:100600004E525E4FA40FB52FB11D2C930196861745
:1006100098F38091F201680F6093F20180E00895F1
:1006200081E008951092160281E0809318021092E2
:10063000170261E082E10E94120261E083E10E9400
:100640001202E9EBF0E080818E7F808380818D7FD4
:10065000808388E48093B80085E48093BC0008958B
:10066000E0914C0280914B02E81730F4F0E0E45541
:10067000FE4F808190E008958FEF9FEF0895909155
:100680004C0280914B022FEF3FEF981748F4E92F6F
:10069000F0E0E455FE4F208130E09F5F90934C02E4
:1006A000C901089580914B0290914C02891B990BCE
:1006B0000895CF93DF93CB01EA01642F0E94EB02F0
:1006C000CE01DF91CF910895CF93DF931F92CDB7E5
:1006D000DEB7698361E0CE0101960E94EB0281E002
:1006E00090E00F90DF91CF91089590E080E0089521
:1006F000EF92FF920F931F93CF93DF9300D000D020
:10070000CDB7DEB785E592E00E94410185E592E034
:100710000E9441018E010F5F1F4F78018A3341F023
:10072000F80181938F0185E592E00E944101F6CFA7
:10073000C7010E94F109182F85E592E00E9441014E
:100740008053990B8230910520F4682F812F0E94ED
:10075000120285E592E00E9441018A3011F08D304D
:10076000C1F785E592E00E9455018A3021F485E5C4
:1007700092E00E9441010F900F900F900F90DF9137
:10078000CF911F910F91FF90EF900895FB01019081
:100790000020E9F73197AF01461B570BDC01ED91C3
:1007A000FC910280F381E02D09948F929F92AF9289
:1007B000BF920F931F93CF93DF93CDB7DEB7A1976F
:1007C0000FB6F894DEBF0FBECDBF19A2423008F4B9
:1007D0004AE08E010F5D1F4F842E912CB12CA12C6D
:1007E000A50194010E94120BE62FB901CA01EA305B
:1007F00004F5E05DD801EE938D01232B242B252BEE
:1008000079F790E080E0109729F0BD0185E592E04E
:100810000E94C603A1960FB6F894DEBF0FBECDBFEF
:10082000DF91CF911F910F91BF90AF909F908F90CC
:100830000895E95CDFCFCF92DF92EF92FF92CF93E2
:10084000DF936B017C016DE285E592E00E94A501DA
:10085000EC0166277727CB016C197D098E099F096A
:100860004AE00E94D5038C0F9D1FDF91CF91FF902E
:10087000EF90DF90CF900895CF93DF93BC01990F55
:10088000880B990B97FF0EC00E941B04EC0164E2D9
:1008900071E085E592E00E94C6038C0F9D1FDF91F9
:1008A000CF9108954AE00E94D503F0CFBC0185E5C1
:1008B00092E00C94C603CF93DF93BC0185E592E0F0
:1008C0000E94C603EC0164E271E085E592E00E94BB
:1008D000C6038C0F9D1FDF91CF9108958F929F9239
:1008E000AF92BF92CF92DF92EF92FF920F931F933E
:1008F000CF93DF9380914B0290914C02891B990B0F
:10090000181619060CF0BFC082EF92E00E943F0358
:10091000182F82EF92E00E943F03D82F80E0C82F6B
:100920007E01E12AC7010E943C04C701019780387B
:10093000910508F080C0F092AB01E092AA016091AD
:10094000A8017091A90160587109072E000C880B4D
:10095000990B0E94190A29E134E046E35FE30E9403
:10096000340B0E94A60B4B018B016091AA01709180
:10097000AB01072E000C880B990B0E94190A29E184
:1009800034E046E35FE30E94340B0E94A60B072E7F
:10099000000C880B990B0E94190A2AE939E949E1F0
:1009A0005FE30E94540A0E94A60B6B017093A7019B
:1009B0006093A601B401990C880B990B0E94190A47
:1009C0002AE939E949E15FE30E94540A0E94A60B33
:1009D0007093A5016093A40107381105B4F170E08C
:1009E00060E08AE00E945E02B60189E00E945E0239
:1009F00087E291E00E945B0483E591E00E94560447
:100A00006091A6017091A701072E000C880B990B2D
:100A100097FF35C00E941B048BE591E00E945604AD
:100A200082E691E00E9456048091A4019091A50174
:100A30000E943C045FCF81E8E816F1040CF47FCFFC
:100A4000F092A901E092A8017ACF0E32110564F468
:100A500070E060E089E00E945E02B6018AE00E94D8
:100A60005E0284E391E0C6CFB6018AE00E945E0296
:100A7000B60189E00E945E0282E491E0BBCF4AE0C9
:100A80000E94D503C9CF64E271E085E592E0DF9171
:100A9000CF911F910F91FF90EF90DF90CF90BF907B
:100AA000AF909F908F900C94C60369E671E082EF3F
:100AB00092E00C94C603CF93DF9385ED8093BC0046
:100AC0008091CE019091CF01A091D001B091D10140
:100AD0000796A11DB11D23E0B695A795979587951B
:100AE0002A95D1F72091BC0024FD03C01092160274
:100AF00036C04091CE015091CF016091D0017091EC
:100B0000D101452B462B472B69F30097A105B10571
:100B100041F025E32A95F1F700000197A109B109F9
:100B2000E1CF8091CD0191E09093CC018823B9F081
:100B3000C091B800D091BA008091BC008A7B8093AC
:100B4000BC0060E082E10E94120260E083E10E944A
:100B500012020E941203D093BA00C093B800DF9132
:100B6000CF9108951F920F920FB60F9211242F93D9
:100B70003F934F935F936F937F938F939F93AF9325
:100B8000BF93EF93FF9385E592E00E948301FF916D
:100B9000EF91BF91AF919F918F917F916F915F91F5
:100BA0004F913F912F910F900FBE0F901F9018956E
:100BB0001F920F920FB60F9211242F938F939F9332
:100BC000EF93FF93E0916502F09166028081E091DE
:100BD0006B02F0916C0282FD1BC0908180916E02CD
:100BE0008F5F8F7320916F02821741F0E0916E0248
:100BF000F0E0EB5AFD4F958F80936E02FF91EF91DD
:100C00009F918F912F910F900FBE0F901F9018956D
:100C10008081F4CF1F920F920FB60F9211242F9361
:100C20003F938F939F93AF93BF9380913D02909199
:100C30003E02A0913F02B091400230913C0223E07D
:100C4000230F2D3758F50196A11DB11D20933C02AD
:100C500080933D0290933E02A0933F02B0934002E6
:100C60008091410290914202A0914302B0914402CE
:100C70000196A11DB11D8093410290934202A09361
:100C80004302B0934402BF91AF919F918F913F91E6
:100C90002F910F900FBE0F901F90189526E8230FED
:100CA0000296A11DB11DD2CF1F920F920FB60F92C7
:100CB00011242F933F934F935F936F937F938F9361
:100CC0009F93AF93BF93EF93FF938091B900887F79
:100CD000803609F44AC0F0F5883209F4A7C018F547
:100CE000803109F49BC0B8F4882309F4F9C0883036
:100CF00009F494C0FF91EF91BF91AF919F918F91B3
:100D00007F916F915F914F913F912F910F900FBE07
:100D10000F901F901895883109F488C0803251F7E0
:100D20008093150214C0803409F49DC040F48033D0
:100D3000B9F38833F9F68093150285ECB0C080359D
:100D400009F485C0883509F496C0883499F60E9464
:100D50005B05D0CF883909F48CC038F5883729F085
:100D600050F4883611F0803729F683E0809316021C
:100D70001092140257C0883809F47BC0803919F0EA
:100D8000803809F0B7CF80911402803208F071C02A
:100D9000E091140281E08E0F809314028091BB00D9
:100DA000F0E0EC50FE4F80833DC0803B39F0E0F432
:100DB000803A09F479C0883A09F09CCF84E08093A6
:100DC00016021092F3011092F201E0914702F091A5
:100DD000480209958091F20181110FC081E0809352
:100DE000F2011092D20109C0803C09F4A6CF883CE0
:100DF00009F4A3CF883B09F07DCFE091F30181E0B6
:100E00008E0F8093F301F0E0EE52FE4F80818093CD
:100E1000BB009091F3018091F20129C080913B02C7
:100E20008093BB0085EC8093BC0064CF90913A0224
:100E300080913902981758F5E0913A0281E08E0FBF
:100E400080933A02F0E0E75EFD4F8081E9CFE091C8
:100E50003A0281E08E0F80933A028091BB00F0E06D
:100E6000E75EFD4F808390913A0280913902981796
:100E7000C8F285E8D8CFE0913A0281E08E0F8093E6
:100E80003A028091BB00F0E0E75EFD4F80838091E5
:100E9000180281115CCF81E08093170284EA80936D
:100EA000BC001092160226CF85EC8093BC001092F5
:100EB000160280911402803230F4E0911402F0E0C6
:100EC000EC50FE4F10826091140270E0E0914502F8
:100ED000F091460284EF91E00995109214020ACF36
:100EE0001092150234CFE5E5F2E01382128288EE0B
:100EF00093E0A0E0B0E084839583A683B78324E0E9
:100F000031E03183208325EC30E03587248724ECE1
:100F100030E03787268720EC30E0318B208B21ECC6
:100F200030E0338B228B22EC30E0358B248B26ECA7
:100F300030E0378B268B118E128E138E148EE2EFDB
:100F4000F2E01382128284839583A683B78386E1BD
:100F500091E091838083EEEFF2E016821782108693
:100F60001186128613861486158616861786108AB1
:100F7000118A128A138A148A158A0895789484B57E
:100F8000826084BD84B5816084BD85B5826085BD85
:100F900085B5816085BD80916E00816080936E0013
:100FA0001092810080918100826080938100809105
:100FB00081008160809381008091800081608093B6
:100FC00080008091B10084608093B1008091B00076
:100FD00081608093B00080917A00846080937A0071
:100FE00080917A00826080937A0080917A0081609B
:100FF00080937A0080917A00806880937A001092C2
:10100000C1001092400310924103109242031092CB
:1010100043031092000310920103109202031092F6
:1010200003030E94DF026B017C014B015C0128EB92
:10103000820E2BE0921EA11CB11C0E94DF026C15D7
:101040007D058E059F0528F086169706A806B90629
:10105000A0F70E94BA024B015C0198EEC92E93E002
:10106000D92EE12CF12C0E94BA02681979098A095B
:101070009B09683E734081059105A8F331E0C31ACE
:10108000D108E108F10848EE840E43E0941EA11C4B
:10109000B11CC114D104E104F10429F70E948700B6
:1010A0000E94DF02609300037093010380930203A8
:1010B0009093030387E791E00E9456040E94DF02A9
:1010C0006B017C014B015C018AE0880E911CA11C24
:1010D000B11C0E94DF026C157D058E059F0528F06E
:1010E00086169706A806B906A0F781E08093140338
:1010F0000E94DF0260930003709301038093020358
:101100009093030388E891E00E94560484E00E94D3
:10111000AF0085E00E94AF0082E00E94AF0083E054
:101120000E94AF008AE00E94AF0089E00E94AF00F9
:1011300061E084E00E94120260E085E00E941202F9
:1011400061E082E00E94120260E083E00E941202ED
:1011500010924C0210924B0210924A0210924902D5
:101160000E9412038CEF90E0909348028093470214
:1011700088E091E0909346028093450280E180935D
:10118000BA008EE694E090934E0280934D0285E57E
:1011900095E09093500280934F020E94870070E088
:1011A00060E089E00E945E0270E060E08AE00E94F8
:1011B0005E02C0E0D0E084EF882E99249394A12CA5
:1011C000B12C0E94DF02672B682B692B09F4EDC05C
:1011D0000E94DF02C0905102D0905202E090530270
:1011E000F09054026C157D058E059F0508F4F0C043
:1011F000C0905102D0905202E0905302F0905402FD
:101200009B01AC012C193D094E095F0969017A0166
:1012100038EEC31633E0D306E104F10408F4CDC080
:101220006093510270935202809353029093540240
:1012300080920C0390920D03A0920E03B0920F03C4
:1012400010921003109211031092120310921303C4
:101250008091040390910503A0910603B0910703C8
:101260008093080390930903A0930A03B0930B03A0
:101270000E94DF02609304037093050380930603CA
:101280009093070385E592E00E945501843611F49E
:101290000E9478030E94DF026093000370930103B1
:1012A00080930203909303030E94DF026B017C0191
:1012B0008FE891E00E9456044AE061E070E080E02F
:1012C00090E00E94D50386E991E00E9456044AE02E
:1012D000C701B6010E94D50388E991E00E94560437
:1012E0008091040390910503A0910603B091070338
:1012F000A7019601281B390B4A0B5B0BCA01B901E8
:101300004AE00E94D50388E991E00E94560460916A
:101310000403709105038091060390910703C09028
:101320000803D0900903E0900A03F0900B036C19B6
:101330007D098E099F094AE00E94D5038AE991E060
:101340000E9456040E94DF024AE00E94D5038CE905
:1013500091E00E945B040E94DF022B013C017C01B2
:101360006B0135E0C30ED11CE11CF11C0E94DF02B1
:10137000641575058605970528F0C616D706E80694
:10138000F906A0F785E592E00E945501843611F434
:101390000E9478030E94DF026093040370930503A8
:1013A000809306039093070308C00E94DF02623017
:1013B00071058105910508F00BCF209709F401CF45
:1013C0000E946F01882309F4FCCE0E940000F9CE30
:1013D000609351027093520280935302909354028F
:1013E00007CFFC0188279927E89421912032E9F35F
:1013F000293010F02E30C8F32B3241F02D3239F461
:10140000689404C00E940F0A820F911D21912053FD
:101410002A30C0F31EF4909581959F4F08957AE08D
:10142000979F902D879F802D910D11240895E8940A
:1014300009C097FB3EF490958095709561957F4F1C
:101440008F4F9F4F9923A9F0F92F96E9BB279395CA
:10145000F695879577956795B795F111F8CFFAF4DA
:10146000BB0F11F460FF1BC06F5F7F4F8F4F9F4F0B
:1014700016C0882311F096E911C0772321F09EE869
:10148000872F762F05C0662371F096E8862F70E0CF
:1014900060E02AF09A95660F771F881FDAF7880FA9
:1014A0009695879597F908950E94670A0C94D80A33
:1014B0000E94CA0A38F00E94D10A20F0952311F048
:1014C0000C94C10A0C94C70A11240C940C0B0E94B2
:1014D000E90A70F3959FC1F3950F50E0551F629F85
:1014E000F001729FBB27F00DB11D639FAA27F00D7D
:1014F000B11DAA1F649F6627B00DA11D661F829FA4
:101500002227B00DA11D621F739FB00DA11D621F88
:10151000839FA00D611D221F749F3327A00D611DA5
:10152000231F849F600D211D822F762F6A2F112487
:101530009F5750409AF0F1F088234AF0EE0FFF1FBA
:10154000BB1F661F771F881F91505040A9F79E3F11
:10155000510580F00C94C10A0C940C0B5F3FE4F32E
:10156000983ED4F3869577956795B795F795E79567
:101570009F5FC1F7FE2B880F911D9695879597F970
:10158000089597F99F6780E870E060E008959FEF05
:1015900080EC089500240A9416161706180609060A
:1015A000089500240A9412161306140605060895D9
:1015B000092E0394000C11F4882352F0BB0F40F461
:1015C000BF2B11F460FF04C06F5F7F4F8F4F9F4FA1
:1015D000089557FD9058440F551F59F05F3F71F023
:1015E0004795880F97FB991F61F09F3F79F087958A
:1015F0000895121613061406551FF2CF4695F1DF13
:1016000008C0161617061806991FF1CF86957105A2
:10161000610508940895E894BB2766277727CB01D6
:1016200097F90895A1E21A2EAA1BBB1BFD010DC05C
:10163000AA1FBB1FEE1FFF1FA217B307E407F50782
:1016400020F0A21BB30BE40BF50B661F771F881F5E
:10165000991F1A9469F760957095809590959B01F4
:10166000AC01BD01CF0108950E94480B0C94D80A2B
:101670000E94D10A58F00E94CA0A40F029F45F3F44
:1016800029F00C94C10A51110C940C0B0C94C70A4C
:101690000E94E90A68F39923B1F3552391F3951B4E
:1016A000550BBB27AA2762177307840738F09F5F83
:1016B0005F4F220F331F441FAA1FA9F335D00E2EF0
:1016C0003AF0E0E832D091505040E695001CCAF75D
:1016D0002BD0FE2F29D0660F771F881FBB1F261720
:1016E00037074807AB07B0E809F0BB0B802DBF01F7
:1016F000FF2793585F4F3AF09E3F510578F00C94C6
:10170000C10A0C940C0B5F3FE4F3983ED4F386952A
:1017100077956795B795F7959F5FC9F7880F911DE6
:101720009695879597F90895E1E0660F771F881FD2
:10173000BB1F621773078407BA0720F0621B730B85
:10174000840BBA0BEE1F88F7E09508950E94AD0B4D
:101750006894B1110C940C0B08950E94F10A88F062
:101760009F5798F0B92F9927B751B0F0E1F0660F65
:10177000771F881F991F1AF0BA95C9F714C0B130A6
:1017800091F00E940B0BB1E008950C940B0B672FA6
:10179000782F8827B85F39F0B93FCCF386957795D5
:1017A0006795B395D9F73EF49095809570956195BE
:1017B0007F4F8F4F9F4F0895EE0FFF1F0590F491BD
:1017C000E02D0994F894FFCF00000000A501CE00A1
:1017D0003201F20163014101550100000000640380
:1017E00059037503FB0052033F0330030D0A0054F5
:1017F00075726E696E67206C656674005475726EE2
:10180000696E672072696768740048656164696E13
:101810006720537472616967687400506974636803
:101820003A200020202020202000526F6C6C3A20AB
:101830000048656C6C6F204E6F64654D43550056D3
:101840004D4450565F317C315F564D4450560A002E
:10185000564D4450525F00564D4450455F003A3259
:0C1860003A007C005F564D4450450000EB
:107E0000112484B714BE81FFF0D085E080938100F7
:107E100082E08093C00088E18093C10086E0809377
:107E2000C20080E18093C4008EE0C9D0259A86E02C
:107E300020E33CEF91E0309385002093840096BBD3
:107E4000B09BFECF1D9AA8958150A9F7CC24DD24C4
:107E500088248394B5E0AB2EA1E19A2EF3E0BF2EE7
:107E6000A2D0813461F49FD0082FAFD0023811F036
:107E7000013811F484E001C083E08DD089C08234E0
:107E800011F484E103C0853419F485E0A6D080C0E4
:107E9000853579F488D0E82EFF2485D0082F10E0AE
:107EA000102F00270E291F29000F111F8ED06801E7
:107EB0006FC0863521F484E090D080E0DECF843638
:107EC00009F040C070D06FD0082F6DD080E0C81688
:107ED00080E7D80618F4F601B7BEE895C0E0D1E017
:107EE00062D089930C17E1F7F0E0CF16F0E7DF06D8
:107EF00018F0F601B7BEE89568D007B600FCFDCFD4
:107F0000A601A0E0B1E02C9130E011968C91119780
:107F100090E0982F8827822B932B1296FA010C0160
:107F200087BEE89511244E5F5F4FF1E0A038BF0790
:107F300051F7F601A7BEE89507B600FCFDCF97BE46
:107F4000E89526C08437B1F42ED02DD0F82E2BD052
:107F50003CD0F601EF2C8F010F5F1F4F84911BD097
:107F6000EA94F801C1F70894C11CD11CFA94CF0C13
:107F7000D11C0EC0853739F428D08EE10CD085E9AC
:107F80000AD08FE07ACF813511F488E018D01DD067
:107F900080E101D065CF982F8091C00085FFFCCF94
:107FA0009093C60008958091C00087FFFCCF809118
:107FB000C00084FD01C0A8958091C6000895E0E648
:107FC000F0E098E1908380830895EDDF803219F02E
:107FD00088E0F5DFFFCF84E1DECF1F93182FE3DFCA
:107FE0001150E9F7F2DF1F91089580E0E8DFEE27F6
:047FF000FF270994CA
:027FFE00040479
:00000001FF
