:020000040000FA
:100000000C945D000C9485000C9485000C94850084
:100010000C9485000C9485000C9485000C9485004C
:100020000C9485000C9485000C9485000C9485003C
:100030000C9485000C9485000C9485000C9485002C
:100040000C94BC040C9485000C948A040C946404F5
:100050000C9485000C9485000C9485000C9485000C
:100060000C9406050C9485000000000800020100B5
:100070000003040700000000000000000000000072
:10008000250028002B0000000000240027002A0083
:10009000040404040404040402020202020203032E
:1000A0000303030301020408102040800102040836
:1000B0001020010204081020250611241FBECFEFD6
:1000C000D8E0DEBFCDBF11E0A0E0B1E0EEEFF1E19E
:1000D00002C005900D92A236B107D9F722E0A2E640
:1000E000B1E001C01D92AA3FB207E1F710E0CDE5F3
:1000F000D0E004C02197FE010E94F708CC35D1075B
:10010000C9F70E9470060C94FD080C940000EBE007
:10011000F2E0A089B18982E08C93A485B5851C9218
:10012000A685B78580E18C93108EA489B58986E079
:100130008C93A289B3898C9180618C93A289B389B5
:100140008C9188608C93A289B3898C9180688C9300
:100150000288F389E02D80818F7D8083089590E06F
:10016000FC01EC55FF4F249180579F4FFC01849177
:10017000882399F090E0880F991FFC01EA57FF4F00
:10018000A591B491FC01E458FF4F859194918FB7EC
:10019000F894EC91E22BEC938FBF0895AF92BF924D
:1001A000CF92DF92EF92FF920F931F93CF93DF9343
:1001B0006C017B018B01040F151FEB015E01AE1872
:1001C000BF08C017D10759F06991D601ED91FC9194
:1001D0000190F081E02DC6010995892B79F7C501C1
:1001E000DF91CF911F910F91FF90EF90DF90CF9013
:1001F000BF90AF9008950895E0910502F091060236
:10020000309729F0109200021092FF01099408958E
:10021000CF93DF93AC01E0910302F0910402309799
:10022000F1F090910202809101029817C0F090E0E5
:10023000292F30E02617370754F4D901AE59BE4FA5
:10024000240F351FE90128812C939F5FF1CF109275
:10025000020260930102CB01DF91CF910994DF91FB
:10026000CF910895FC01538D448D252F30E0842FCC
:1002700090E0821B930B541710F0CF9608950197CE
:100280000895FC01918D828D981761F0A28DAE0FBB
:10029000BF2FB11D5D968C91928D9F5F9F73928F42
:1002A00090E008958FEF9FEF0895FC01918D828D6E
:1002B000981731F0828DE80FF11D858D90E008953B
:1002C0008FEF9FEF0895FC01918D228D892F90E093
:1002D000805C9F4F821B91098F73992708958BE053
:1002E00092E00E94630121E0892B09F420E0822F33
:1002F000089580E090E0892B29F00E946F01811120
:100300000C9400000895FC01A48DA80FB92FB11D15
:10031000A35ABF4F2C91848D90E001968F7399273B
:10032000848FA689B7892C93A089B1898C91837019
:1003300080648C93938D848D981306C00288F38912
:10034000E02D80818F7D80830895EF92FF920F933F
:100350001F93CF93DF93EC0181E0888F9B8D8C8D71
:1003600098131AC0E889F989808185FF15C09FB765
:10037000F894EE89FF896083E889F9898081837028
:10038000806480839FBF81E090E0DF91CF911F91D7
:100390000F91FF90EF900895F62E0B8D10E00F5FF8
:1003A0001F4F0F731127E02E8C8D8E110CC00FB6CE
:1003B00007FCFACFE889F989808185FFF5CFCE0166
:1003C0000E948301F1CFEB8DEC0FFD2FF11DE35A5D
:1003D000FF4FF0829FB7F8940B8FEA89FB898081E9
:1003E0008062CFCFCF93DF93EC01888D8823B9F063
:1003F000AA89BB89E889F9898C9185FD03C0808130
:1004000086FD0DC00FB607FCF7CF8C9185FFF2CFAC
:10041000808185FFEDCFCE010E948301E9CFDF917E
:10042000CF91089590E0FC01E859FF4F2491FC0121
:10043000EC55FF4F3491FC01E057FF4FE491EE2360
:10044000C9F0222339F0233001F1A8F4213019F149
:10045000223029F1F0E0EE0FFF1FE458FF4FA59185
:10046000B4918FB7F894EC91611126C030953E237A
:100470003C938FBF08952730A9F02830C9F024306D
:1004800049F7809180008F7D03C0809180008F7735
:1004900080938000DFCF84B58F7784BDDBCF84B5B8
:1004A0008F7DFBCF8091B0008F778093B000D2CF4B
:1004B0008091B0008F7DF9CF3E2BDACF3FB7F89413
:1004C0008091F7019091F801A091F901B091FA01A2
:1004D00026B5A89B05C02F3F19F00196A11DB11D9F
:1004E0003FBFBA2FA92F982F8827BC01CD01620FDB
:1004F000711D811D911D42E0660F771F881F991F96
:100500004A95D1F708952FB7F8946091F30170914F
:10051000F4018091F5019091F6012FBF089520918B
:10052000A801260F3327331F21323105ECF4209127
:10053000CC01FC0190E080E0243069F082E0089575
:10054000A091A8012191AC0148575E4FA40FB52F8F
:10055000B11D2C930196861798F38091A801680F1E
:100560006093A80180E0089581E008951092CC0185
:1005700081E08093CE011092CD0161E082E10E9482
:10058000120261E083E10E941202E9EBF0E0808157
:100590008E7F808380818D7F808388E48093B80004
:1005A00085E48093BC000895E091020280910102ED
:1005B000E81730F4F0E0EE59FE4F808190E00895A6
:1005C0008FEF9FEF089590910202809101022FEF2B
:1005D0003FEF981748F4E92FF0E0EE59FE4F2081E5
:1005E00030E09F5F90930202C9010895809101025B
:1005F00090910202891B990B0895CF93DF93CB0151
:10060000EA01642F0E948F02CE01DF91CF910895FD
:10061000CF93DF931F92CDB7DEB7698361E0CE0140
:1006200001960E948F0281E090E00F90DF91CF91C0
:10063000089590E080E00895EF92FF920F931F934A
:10064000CF93DF9300D000D0CDB7DEB78BE092E040
:100650000E9441018BE092E00E9441018E010F5FF8
:100660001F4F78018A3341F0F80181938F018BE0AD
:1006700092E00E944101F6CFC7010E94AF08182FF7
:100680008BE092E00E9441018053990B82309105EA
:1006900020F4682F812F0E9412028BE092E00E94CA
:1006A00041018A3011F08D30C1F78BE092E00E9459
:1006B00055018A3021F48BE092E00E9441010F90B5
:1006C0000F900F900F90DF91CF911F910F91FF909E
:1006D000EF900895FB0101900020E9F73197AF01F9
:1006E000461B570BDC01ED91FC910280F381E02D5C
:1006F00009948F929F92AF92BF920F931F93CF93C3
:10070000DF93CDB7DEB7A1970FB6F894DEBF0FBE6B
:10071000CDBF19A2423008F44AE08E010F5D1F4F91
:10072000842E912CB12CA12CA50194010E94D508F6
:10073000E62FB901CA01EA3004F5E05DD801EE9375
:100740008D01232B242B252B79F790E080E0109747
:1007500029F0BD018BE092E00E946A03A1960FB6DA
:10076000F894DEBF0FBECDBFDF91CF911F910F91E7
:10077000BF90AF909F908F900895E95CDFCF64E2C7
:1007800071E088EA92E00C946A03CF92DF92EF92D4
:10079000FF92CF93DF938091010290910202891B17
:1007A000990B181619066CF588EA92E00E94E3028C
:1007B000F82E88EA92E00E94E302D82F80E0C82F4A
:1007C0006E01CF280D2C000CEE08FF084AE0C7018F
:1007D000B601F7FE0DC06DE28BE092E00E94A5012C
:1007E00066277727CB016C197D098E099F094AE09E
:1007F0000E94790362E371E08BE092E00E946A0359
:10080000CACF62E371E08BE092E0DF91CF91FF907D
:10081000EF90DF90CF900C946A03CF93DF9385ED38
:100820008093BC008091840190918501A091860104
:10083000B09187010796A11DB11D23E0B695A7953C
:10084000979587952A95D1F72091BC0024FD03C088
:100850001092CC0136C04091840150918501609185
:10086000860170918701452B462B472B69F3009732
:10087000A105B10541F025E32A95F1F700000197A4
:10088000A109B109E1CF8091830191E090938201A8
:100890008823B9F0C091B800D091BA008091BC0013
:1008A0008A7B8093BC0060E082E10E94120260E0DB
:1008B00083E10E9412020E94B602D093BA00C09354
:1008C000B800DF91CF9108951F920F920FB60F924B
:1008D00011242F933F934F935F936F937F938F9345
:1008E0009F93AF93BF93EF93FF938BE092E00E94AF
:1008F0008301FF91EF91BF91AF919F918F917F9174
:100900006F915F914F913F912F910F900FBE0F907C
:100910001F9018951F920F920FB60F9211242F93CC
:100920008F939F93EF93FF93E0911B02F0911C0232
:100930008081E0912102F091220282FD1BC0908112
:10094000809124028F5F8F7320912502821741F0DE
:10095000E0912402F0E0E55FFD4F958F8093240243
:10096000FF91EF919F918F912F910F900FBE0F905C
:100970001F9018958081F4CF1F920F920FB60F929F
:1009800011242F933F938F939F93AF93BF938091A5
:10099000F3019091F401A091F501B091F60130912D
:1009A000F20123E0230F2D3758F50196A11DB11D4B
:1009B0002093F2018093F3019093F401A093F50149
:1009C000B093F6018091F7019091F801A091F9019F
:1009D000B091FA010196A11DB11D8093F70190938A
:1009E000F801A093F901B093FA01BF91AF919F91E3
:1009F0008F913F912F910F900FBE0F901F901895E0
:100A000026E8230F0296A11DB11DD2CF1F920F928F
:100A10000FB60F9211242F933F934F935F936F93D1
:100A20007F938F939F93AF93BF93EF93FF938091A7
:100A3000B900887F803609F44AC0F0F5883209F49D
:100A4000A7C018F5803109F49BC0B8F4882309F4D5
:100A5000F9C0883009F494C0FF91EF91BF91AF9134
:100A60009F918F917F916F915F914F913F912F91C6
:100A70000F900FBE0F901F901895883109F488C011
:100A8000803251F78093CB0114C0803409F49DC0AB
:100A900040F48033B9F38833F9F68093CB0185ECC9
:100AA000B0C0803509F485C0883509F496C0883413
:100AB00099F60E940D04D0CF883909F48CC038F51E
:100AC000883729F050F4883611F0803729F683E012
:100AD0008093CC011092CA0157C0883809F47BC0BA
:100AE000803919F0803809F0B7CF8091CA0180327F
:100AF00008F071C0E091CA0181E08E0F8093CA01B5
:100B00008091BB00F0E0E655FE4F80833DC0803B06
:100B100039F0E0F4803A09F479C0883A09F09CCFC2
:100B200084E08093CC011092A9011092A801E09179
:100B3000FD01F091FE0109958091A80181110FC07E
:100B400081E08093A8011092880109C0803C09F4DB
:100B5000A6CF883C09F4A3CF883B09F07DCFE09174
:100B6000A90181E08E0F8093A901F0E0E857FE4FC4
:100B700080818093BB009091A9018091A80129C038
:100B80008091F1018093BB0085EC8093BC0064CF21
:100B90009091F0018091EF01981758F5E091F001E4
:100BA00081E08E0F8093F001F0E0E153FE4F8081F1
:100BB000E9CFE091F00181E08E0F8093F001809108
:100BC000BB00F0E0E153FE4F80839091F0018091F3
:100BD000EF019817C8F285E8D8CFE091F00181E0E5
:100BE0008E0F8093F0018091BB00F0E0E153FE4F47
:100BF00080838091CE0181115CCF81E08093CD0113
:100C000084EA8093BC001092CC0126CF85EC8093BF
:100C1000BC001092CC018091CA01803230F4E09186
:100C2000CA01F0E0E655FE4F10826091CA0170E003
:100C3000E091FB01F091FC018AEA91E009951092A4
:100C4000CA010ACF1092CB0134CFEBE0F2E013825D
:100C5000128288EE93E0A0E0B0E084839583A683BF
:100C6000B78324E031E03183208325EC30E0358701
:100C7000248724EC30E03787268720EC30E0318B66
:100C8000208B21EC30E0338B228B22EC30E0358B53
:100C9000248B26EC30E0378B268B118E128E138E30
:100CA000148EE8EAF2E01382128284839583A6838D
:100CB000B78386E191E091838083E4EBF2E01682D2
:100CC000178210861186128613861486158616865C
:100CD0001786108A118A128A138A148A158A08952F
:100CE000789484B5826084BD84B5816084BD85B507
:100CF000826085BD85B5816085BD80916E00816013
:100D000080936E00109281008091810082608093B8
:100D100081008091810081608093810080918000BA
:100D20008160809380008091B10084608093B100E5
:100D30008091B00081608093B00080917A008460DF
:100D400080937A0080917A00826080937A0080910B
:100D50007A00816080937A0080917A008068809325
:100D60007A001092C1001092F6021092F7021092CF
:100D7000F8021092F9021092B6021092B702109285
:100D8000B8021092B9020E9483026B017C014B01F0
:100D90005C0128EB820E2BE0921EA11CB11C0E946C
:100DA00083026C157D058E059F0528F08616970633
:100DB000A806B906A0F70E945E024B015C0198EEFE
:100DC000C92E93E0D92EE12CF12C0E945E02681905
:100DD00079098A099B09683E734081059105A8F34A
:100DE00031E0C31AD108E108F10848EE840E43E06F
:100DF000941EA11CB11CC114D104E104F10429F713
:100E00000E9487000E9483026093B6027093B7022B
:100E10008093B8029093B90265E371E08BE092E0B1
:100E20000E946A030E9483026B017C014B015C01FA
:100E30008AE0880E911CA11CB11C0E9483026C15D3
:100E40007D058E059F0528F086169706A806B9062B
:100E5000A0F781E08093CA020E9483026093B602E9
:100E60007093B7028093B8029093B90266E471E080
:100E70008BE092E00E946A0384E00E94AF0085E06C
:100E80000E94AF0082E00E94AF0083E00E94AF00AA
:100E90008AE00E94AF0089E00E94AF0061E084E038
:100EA0000E94120260E085E00E94120261E082E08E
:100EB0000E94120260E083E00E941202109202027D
:100EC00010920102109200021092FF010E94B602DD
:100ED0008CEF90E09093FE018093FD0188E091E01B
:100EE0009093FC018093FB0180E18093BA0085EC34
:100EF00093E090930402809303028FEB93E090932E
:100F00000602809305020E948700C0E0D0E084EFD3
:100F1000882E99249394A12CB12C0E948302672BD4
:100F2000682B692B09F4FFC00E948302C09007025E
:100F3000D0900802E0900902F0900A026C157D053D
:100F40008E059F0508F402C1C0900702D0900802E8
:100F5000E0900902F0900A029B01AC012C193D09B6
:100F60004E095F0969017A0138EEC31633E0D306F2
:100F7000E104F10408F4DFC06093070270930802F3
:100F80008093090290930A028092C2029092C30257
:100F9000A092C402B092C5021092C6021092C7027B
:100FA0001092C8021092C9028091BA029091BB02BD
:100FB000A091BC02B091BD028093BE029093BF028B
:100FC000A093C002B093C1020E9483026093BA0250
:100FD0007093BB028093BC029093BD028BE092E0C1
:100FE0000E945501843611F40E941C030E94830262
:100FF0006093B6027093B7028093B8029093B902DF
:101000000E9483026B017C016DE471E08BE092E051
:101010000E946A034AE061E070E080E090E00E9494
:10102000790364E571E08BE092E00E946A034AE094
:10103000C701B6010E94790366E571E08BE092E09A
:101040000E946A038091BA029091BB02A091BC02F7
:10105000B091BD02A7019601281B390B4A0B5B0B0F
:10106000CA01B9014AE00E94790366E571E08BE0AC
:1010700092E00E946A036091BA027091BB02809173
:10108000BC029091BD02C090BE02D090BF02E09021
:10109000C002F090C1026C197D098E099F094AE0D7
:1010A0000E94790368E571E08BE092E00E946A0398
:1010B0000E9483024AE00E9479036AE571E08BE0B6
:1010C00092E00E946A0362E371E08BE092E00E948A
:1010D0006A030E9483022B013C017C016B0135E015
:1010E000C30ED11CE11CF11C0E948302641575051E
:1010F0008605970528F0C616D706E806F906A0F774
:101100008BE092E00E945501843611F40E941C038A
:101110000E9483026093BA027093BB028093BC0268
:101120009093BD0208C00E94830262307105810560
:10113000910508F0F9CE209709F4EFCE0E946F01D7
:10114000882309F4EACE0E940000E7CE60930702EC
:10115000709308028093090290930A02F5CEFC0175
:1011600088279927E89421912032E9F3293010F05B
:101170002E30C8F32B3241F02D3239F4689404C07C
:101180000E94CD08820F911D219120532A30C0F377
:101190001EF4909581959F4F08957AE0979F902D2A
:1011A000879F802D910D11240895A1E21A2EAA1B6C
:1011B000BB1BFD010DC0AA1FBB1FEE1FFF1FA21707
:1011C000B307E407F50720F0A21BB30BE40BF50B04
:1011D000661F771F881F991F1A9469F7609570958D
:1011E000809590959B01AC01BD01CF010895EE0F54
:1011F000FF1F0590F491E02D0994F894FFCF0000B3
:101200000000A501CE003201F20163014101550148
:10121000000000000803FD021903FB00F602E302D0
:10122000D40248656C6C6F204E6F64654D43550069
:101230000D0A00564D4450565F317C315F564D4487
:1012400050560A00564D4450525F00564D4450458A
:101250005F003A323A007C005F564D445045000032
:107E0000112484B714BE81FFF0D085E080938100F7
:107E100082E08093C00088E18093C10086E0809377
:107E2000C20080E18093C4008EE0C9D0259A86E02C
:107E300020E33CEF91E0309385002093840096BBD3
:107E4000B09BFECF1D9AA8958150A9F7CC24DD24C4
:107E500088248394B5E0AB2EA1E19A2EF3E0BF2EE7
:107E6000A2D0813461F49FD0082FAFD0023811F036
:107E7000013811F484E001C083E08DD089C08234E0
:107E800011F484E103C0853419F485E0A6D080C0E4
:107E9000853579F488D0E82EFF2485D0082F10E0AE
:107EA000102F00270E291F29000F111F8ED06801E7
:107EB0006FC0863521F484E090D080E0DECF843638
:107EC00009F040C070D06FD0082F6DD080E0C81688
:107ED00080E7D80618F4F601B7BEE895C0E0D1E017
:107EE00062D089930C17E1F7F0E0CF16F0E7DF06D8
:107EF00018F0F601B7BEE89568D007B600FCFDCFD4
:107F0000A601A0E0B1E02C9130E011968C91119780
:107F100090E0982F8827822B932B1296FA010C0160
:107F200087BEE89511244E5F5F4FF1E0A038BF0790
:107F300051F7F601A7BEE89507B600FCFDCF97BE46
:107F4000E89526C08437B1F42ED02DD0F82E2BD052
:107F50003CD0F601EF2C8F010F5F1F4F84911BD097
:107F6000EA94F801C1F70894C11CD11CFA94CF0C13
:107F7000D11C0EC0853739F428D08EE10CD085E9AC
:107F80000AD08FE07ACF813511F488E018D01DD067
:107F900080E101D065CF982F8091C00085FFFCCF94
:107FA0009093C60008958091C00087FFFCCF809118
:107FB000C00084FD01C0A8958091C6000895E0E648
:107FC000F0E098E1908380830895EDDF803219F02E
:107FD00088E0F5DFFFCF84E1DECF1F93182FE3DFCA
:107FE0001150E9F7F2DF1F91089580E0E8DFEE27F6
:047FF000FF270994CA
:027FFE00040479
:00000001FF
