:100000000C9474000C949C000C949C000C949C0028
:100010000C949C000C949C000C949C000C949C00F0
:100020000C949C000C949C000C949C000C949C00E0
:100030000C949C000C949C000C949C000C949C00D0
:100040000C944C070C94B5080C941A070C94F40605
:100050000C949C000C949C000C949C000C949C00B0
:100060000C9496070C949C00084AD73B3BCE016E3B
:1000700084BCBFFDC12F3D6C74319ABD56833DDAFF
:100080003D00C77F11BED9E4BB4C3E916BAAAABE0E
:10009000000000803F000000000800020100000393
:1000A0000407000000000000000000000000250020
:1000B00028002B0000000000240027002A00040470
:1000C0000404040404040202020202020303030300
:1000D00003030102040810204080010204081020DC
:1000E000010204081020C70811241FBECFEFD8E07A
:1000F000DEBFCDBF23E0A0E6B1E001C01D92A83570
:10010000B207E1F711E0A0E0B1E0E4E0F6E202C0FE
:1001100005900D92A036B107D9F710E0C4E7D0E002
:1001200004C02197FE010E94FA12C337D107C9F714
:100130000E9412090C9400130C940000E9E6F2E00E
:10014000A089B18982E08C93A485B5851C92A6858F
:10015000B78580E18C93108EA489B58986E08C9355
:10016000A289B3898C9180618C93A289B3898C9187
:1001700088608C93A289B3898C9180688C93028863
:10018000F389E02D80818F7D8083089590916802AE
:10019000809167022FEF3FEF981748F4E92FF0E0C6
:1001A000E95BFD4F208130E09F5F90936802C901B9
:1001B000089590916802809167022FEF3FEF9817A2
:1001C00048F4E92FF0E0E95BFD4F208130E09F5FCC
:1001D00090936802C9010895AF92BF92CF92DF92C7
:1001E000EF92FF920F931F93CF93DF936C017B01EC
:1001F0008B01040F151FEB015E01AE18BF08C0177D
:10020000D10759F06991D601ED91FC910190F081EF
:10021000E02DC6010995892B79F7C501DF91CF91B2
:100220001F910F91FF90EF90DF90CF90BF90AF9014
:100230000895089508950895FC01538D448D252F48
:1002400030E0842F90E0821B930B541710F0CF9670
:10025000089501970895FC01918D828D981761F0A2
:10026000A28DAE0FBF2FB11D5D968C91928D9F5FB9
:100270009F73928F90E008958FEF9FEF0895FC0198
:10028000918D828D981731F0828DE80FF11D858D4B
:1002900090E008958FEF9FEF0895FC01918D228DDE
:1002A000892F90E0805C9F4F821B91098F73992763
:1002B000089589E692E00E944D0121E0892B09F41E
:1002C00020E0822F089580E090E0892B29F00E94A1
:1002D000590181110C9400000895FC01A48DA80F10
:1002E000B92FB11DA35ABF4F2C91848D90E0019678
:1002F0008F739927848FA689B7892C93A089B18998
:100300008C91837080648C93938D848D981306C038
:100310000288F389E02D80818F7D80830895EF929C
:10032000FF920F931F93CF93DF93EC0181E0888FAF
:100330009B8D8C8D98131AC0E889F989808185FF7F
:1003400015C09FB7F894EE89FF896083E889F98921
:1003500080818370806480839FBF81E090E0DF9123
:10036000CF911F910F91FF90EF900895F62E0B8D76
:1003700010E00F5F1F4F0F731127E02E8C8D8E1131
:100380000CC00FB607FCFACFE889F989808185FF98
:10039000F5CFCE010E946D01F1CFEB8DEC0FFD2F5B
:1003A000F11DE35AFF4FF0829FB7F8940B8FEA8953
:1003B000FB8980818062CFCFCF93DF93EC01888D62
:1003C0008823B9F0AA89BB89E889F9898C9185FDD0
:1003D00003C0808186FD0DC00FB607FCF7CF8C915E
:1003E00085FFF2CF808185FFEDCFCE010E946D01A8
:1003F000E9CFDF91CF91089590E0FC01EA56FF4FDD
:100400002491FC01EE52FF4F3491FC01E254FF4F66
:10041000E491EE23C9F0222339F0233001F1A8F44E
:10042000213019F1223029F1F0E0EE0FFF1FE655DF
:10043000FF4FA591B4918FB7F894EC91611126C04C
:1004400030953E233C938FBF08952730A9F0283084
:10045000C9F0243049F7809180008F7D03C08091DE
:1004600080008F7780938000DFCF84B58F7784BD45
:10047000DBCF84B58F7DFBCF8091B0008F778093E9
:10048000B000D2CF8091B0008F7DF9CF3E2BDACF74
:100490003FB7F8948091AA019091AB01A091AC0173
:1004A000B091AD0126B5A89B05C02F3F19F001966C
:1004B000A11DB11D3FBFBA2FA92F982F8827BC01BE
:1004C000CD01620F711D811D911D42E0660F771FE6
:1004D000881F991F4A95D1F708958F929F92AF92E6
:1004E000BF92CF92DF92EF92FF924B015C010E948C
:1004F00048026B017C010E9448026C197D098E093B
:100500009F09683E734081059105A8F321E0821A96
:100510009108A108B10888EEC80E83E0D81EE11C3E
:10052000F11C81149104A104B10429F7FF90EF900C
:10053000DF90CF90BF90AF909F908F9008952FB78E
:10054000F8946091A6017091A7018091A801909103
:10055000A9012FBF089520918201260F3327331F51
:1005600021323105ECF420914102FC0190E080E061
:10057000243069F082E00895A09182012191AC01BC
:100580004E595E4FA40FB52FB11D2C9301968617BF
:1005900098F380918201680F6093820180E0089552
:1005A00081E008951092410281E080934002109210
:1005B0003B0261E082E10E94FC0161E083E10E9474
:1005C000FC01E9EBF0E080818E7F808380818D7F6C
:1005D000808388E48093B80085E48093BC0008950C
:1005E000CF93DF9391E0909361018823B9F0C0919C
:1005F000B800D091BA008091BC008A7B8093BC0087
:1006000060E082E10E94FC0160E083E10E94FC0165
:100610000E94D202D093BA00C093B800DF91CF916C
:1006200008958F929F92AF92BF92CF92DF92EF92F6
:10063000FF920F931F93CF93DF93D82FC62F142FC2
:10064000613208F09CC00E9448026B017C018091DD
:10065000410281116FC081E08093410210934002FA
:100660009FEF90933F0210923E029C0F90933D02A9
:1006700080933C0280913C02DD0FD82BD0933C024A
:1006800080913B02813009F07CC010923B020E94B5
:1006900048026B017C0180913C028093BB008091F9
:1006A000430290914402A0914502B0914602892BE9
:1006B0008A2B8B2BA1F00E944802009143021091DB
:1006C000440220914502309146026C197D098E0941
:1006D0009F09061717072807390708F44CC08091AF
:1006E000BC0083FDD8CF85EC8093BC000E944802FB
:1006F0006B017C0180914102813009F444C08091FA
:100700003E028C1710F4C0913E02EBE1F2E0A7E448
:10071000B2E080E08C1359C08C2FDF91CF911F91F4
:100720000F91FF90EF90DF90CF90BF90AF909F9090
:100730008F9008958091430290914402A0914502C8
:10074000B0914602892B8A2B8B2B09F480CF0E9413
:1007500048028090430290904402A0904502B090DD
:1007600046026C197D098E099F0986169706A80610
:10077000B90608F06CCF809142020E94F002C0E0FE
:10078000CBCF85EEB1CF8091430290914402A091EE
:100790004502B0914602892B8A2B8B2B09F4AACFF4
:1007A0000E944802009143021091440220914502A8
:1007B000309146026C197D098E099F0906171707AB
:1007C0002807390708F096CFD6CF91919D938F5F78
:1007D000A1CF8F929F92AF92BF92CF92DF92EF9272
:1007E000FF920F931F93CF93DF93D0911A02D132D0
:1007F00008F0D7C0182FC09119020E9448026B015F
:100800007C018091410281116BC082E080934102A2
:10081000109340028FEF80933F0210923E02D093DC
:100820003D02A9EFB1E0EBE1F2E080E0D81391C026
:1008300010923C0280913C02CC0FC82BC0933C022A
:1008400080913B02813009F088C010923B020E94E7
:1008500048026B017C0180913C028093BB00809137
:10086000430290914402A0914502B0914602892B27
:100870008A2B8B2BA1F00E94480200914302109119
:10088000440220914502309146026C197D098E097F
:100890009F09061717072807390708F442C08091F7
:1008A000BC0083FDD8CF85EC8093BC000E94480239
:1008B0006B017C0180914102823009F450C080912B
:1008C0003F028F3F09F46FC080913F02803209F4EC
:1008D0006CC080913F02803309F469C084E026C077
:1008E0008091430290914402A0914502B09146024A
:1008F000892B8A2B8B2B09F484CF0E94480280908D
:10090000430290904402A0904502B09046026C19B8
:100910007D098E099F0986169706A806B90608F074
:1009200070CF809142020E94F00285E01092F8019F
:1009300010921A021092F701DF91CF911F910F913F
:10094000FF90EF90DF90CF90BF90AF909F908F90EF
:1009500008959D9191938F5F69CF85EEA5CF80918A
:10096000430290914402A0914502B0914602892B26
:100970008A2B8B2B09F49ECF0E94480200914302E0
:100980001091440220914502309146026C197D0974
:100990008E099F09061717072807390708F08ACF1D
:1009A000C0CF81E0C3CF80E0C1CF82E0BFCF83E082
:1009B000BDCFE091680280916702E81730F4F0E063
:1009C000E95BFD4F808190E008958FEF9FEF0895E0
:1009D0008091670290916802891B990B0895CF92CC
:1009E000DF92EF92FF920F931F93CF93DF937C01DF
:1009F000CB018A012091F701222389F0EB016B01E1
:100A0000C40ED51ECC15DD0569F06991D701ED91B5
:100A1000FC910190F081E02DC7010995F3CF642F7F
:100A20000E94AB02C801DF91CF911F910F91FF90FF
:100A3000EF90DF90CF900895CF93DF931F92CDB7C3
:100A4000DEB769832091F7012223F9F020911A0281
:100A5000203258F021E030E0FC013383228390E023
:100A600080E00F90DF91CF9108958091F801E82FF9
:100A7000F0E0E750FE4F998190838F5F8093F801FB
:100A800080931A0281E090E0ECCF61E0CE01019604
:100A90000E94AB02F7CF682F86E093E00C941C0510
:100AA00090E080E00895FC0101900020E9F7319783
:100AB000AF01481B590BBC0189E692E00C94EC0095
:100AC0008F929F92AF92BF920F931F93CF93DF931A
:100AD000CDB7DEB7A1970FB6F894DEBF0FBECDBF7E
:100AE00019A2423008F44AE08E010F5D1F4F842E98
:100AF000912CB12CA12CA50194010E94FC10E62F91
:100B0000B901CA01EA30F4F4E05DD801EE938D0139
:100B1000232B242B252B79F790E080E0109719F0F8
:100B2000CD010E945305A1960FB6F894DEBF0FBE0B
:100B3000CDBFDF91CF911F910F91BF90AF909F904C
:100B40008F900895E95CE1CF4F925F926F927F9210
:100B50008F929F92AF92BF92CF92DF92EF92FF92CD
:100B60006B017C01AC019B010E94E0128823C1F063
:100B700084E291E00E9453057C0180E391E00E94B1
:100B800053058E0D9F1DFF90EF90DF90CF90BF908B
:100B9000AF909F908F907F906F905F904F9008954F
:100BA00046015701E894B7F82FEF3FEF4FE75FE7B3
:100BB000C501B4010E94E01281110DC02FEF3FEF7B
:100BC0004FE75FE7C501B4010E94D80F18161CF467
:100BD00088E291E0CFCF2FEF3FEF4FE75FE4C7010F
:100BE000B6010E94891218161CF48CE291E0C2CF63
:100BF0002FEF3FEF4FE75FECC701B6010E94D80F20
:100C000087FDF3CF20E030E0A901C701B6010E94C3
:100C1000D80FB12CA12C87FF0AC06DE289E692E0C3
:100C20000E948F015C01F7FAF094F7F8F0942AE043
:100C300037ED43EA5BE3C701B6010E941F112B01A8
:100C40003C010E9433126B017C010E94DD0F9B016D
:100C5000AC01C301B2010E941E112B013C014AE00C
:100C6000C701B6010E9460057C01EA0CFB1C6EE224
:100C700089E692E00E948F01E80EF91E20E030E044
:100C800040E251E4C301B2010E943E102B013C013D
:100C90000E9433124B01B12CA12C4AE0C501B401D2
:100CA0000E946005E80EF91EC501B4010E94DD0F27
:100CB0009B01AC01C301B2010E941E1120E030E093
:100CC00040E251E40E943E100E94331290E080E026
:100CD0004AE00E946005E80EF91E4FCFEF92FF92A6
:100CE0000F931F93CF93DF9300D000D0CDB7DEB723
:100CF00089E692E00E942B0189E692E00E942B0196
:100D00008E010F5F1F4F78018A3341F0F801819304
:100D10008F0189E692E00E942B01F6CFC7010E9465
:100D2000B20F182F89E692E00E942B018053990B95
:100D30008230910520F4682F812F0E94FC0189E602
:100D400092E00E942B018A3011F08D30C1F789E6C4
:100D500092E00E943F018A3021F489E692E00E94ED
:100D60002B010F900F900F900F90DF91CF911F915B
:100D70000F91FF90EF90089585ED8093BC008091D6
:100D8000430290914402A0914502B0914602079619
:100D9000A11DB11D23E0B695A795979587952A9536
:100DA000D1F72091BC0024FD03C0109241020895A8
:100DB0004091430250914402609145027091460275
:100DC000452B462B472B69F30097A105B10541F050
:100DD00025E32A95F1F700000197A109B109E1CFB8
:100DE000809142020C94F0021F920F920FB60F9264
:100DF00011242F933F934F935F936F937F938F9320
:100E00009F93AF93BF93EF93FF9389E692E00E9485
:100E10006D01FF91EF91BF91AF919F918F917F9164
:100E20006F915F914F913F912F910F900FBE0F9057
:100E30001F9018951F920F920FB60F9211242F93A7
:100E40008F939F93EF93FF93E0917902F0917A0251
:100E50008081E0917F02F091800282FD1BC0908131
:100E6000809182028F5F8F7320918302821741F0FD
:100E7000E0918202F0E0E759FD4F958F8093820266
:100E8000FF91EF919F918F912F910F900FBE0F9037
:100E90001F9018958081F4CF1F920F920FB60F927A
:100EA00011242F933F938F939F93AF93BF93809180
:100EB000A6019091A701A091A801B091A90130913C
:100EC000A50123E0230F2D3758F50196A11DB11D73
:100ED0002093A5018093A6019093A701A093A80158
:100EE000B093A9018091AA019091AB01A091AC01AE
:100EF000B091AD010196A11DB11D8093AA019093FF
:100F0000AB01A093AC01B093AD01BF91AF919F91A4
:100F10008F913F912F910F900FBE0F901F901895BA
:100F200026E8230F0296A11DB11DD2CF1F920F926A
:100F30000FB60F9211242F933F934F935F936F93AC
:100F40007F938F939F93AF93BF93EF93FF93809182
:100F5000B900887F803609F44AC0F0F5883209F478
:100F6000A7C018F5803109F49BC0B8F4882309F4B0
:100F7000F9C0883009F494C0FF91EF91BF91AF910F
:100F80009F918F917F916F915F914F913F912F91A1
:100F90000F900FBE0F901F901895883109F488C0EC
:100FA000803251F780933F0214C0803409F49DC011
:100FB00040F48033B9F38833F9F680933F0285EC2F
:100FC000B0C0803509F485C0883509F496C08834EE
:100FD00099F60E94BC06D0CF883909F48CC038F548
:100FE000883729F050F4883611F0803729F683E0ED
:100FF000809341021092A40157C0883809F47BC045
:10100000803919F0803809F0B7CF8091A40180327F
:1010100008F071C0E091A40181E08E0F8093A401DB
:101020008091BB00F0E0EC57FE4F80833DC0803BD9
:1010300039F0E0F4803A09F479C0883A09F09CCF9D
:1010400084E0809341021092830110928201E0912A
:10105000B001F091B10109958091820181110FC019
:1010600081E0809382011092620109C0803C09F402
:10107000A6CF883C09F4A3CF883B09F07DCFE0914F
:10108000830181E08E0F80938301F0E0EE59FE4FE3
:1010900080818093BB00909183018091820129C05F
:1010A00080913C028093BB0085EC8093BC0064CFB0
:1010B00090913E0280913D02981758F5E0913E02D2
:1010C00081E08E0F80933E02F0E0E55EFD4F80816F
:1010D000E9CFE0913E0281E08E0F80933E02809145
:1010E000BB00F0E0E55EFD4F808390913E02809171
:1010F0003D029817C8F285E8D8CFE0913E0281E022
:101100008E0F80933E028091BB00F0E0E55EFD4FC4
:1011100080838091400281115CCF81E080933B020B
:1011200084EA8093BC001092410226CF85EC809324
:10113000BC00109241028091A401803230F4E09111
:10114000A401F0E0EC57FE4F10826091A40170E022
:10115000E091AE01F091AF0184E891E00995109221
:10116000A4010ACF10923F0234CF1F920F920FB604
:101170000F9211248F938EB58093600181E080934C
:10118000BA018F910F900FBE0F901F901895E9E64E
:10119000F2E01382128288EE93E0A0E0B0E0848354
:1011A0009583A683B78324E031E03183208325EC47
:1011B00030E03587248724EC30E03787268720EC21
:1011C00030E0318B208B21EC30E0338B228B22EC12
:1011D00030E0358B248B26EC30E0378B268B118E5C
:1011E000128E138E148EE6E0F3E013821282848353
:1011F0009583A683B78386E191E091838083E2E1C2
:10120000F3E01682178210861186128613861486E2
:10121000158616861786108A118A128A138A148AEE
:10122000158A0895CF93DF93CDB7DEB76E970FB6CB
:10123000F894DEBF0FBECDBF789484B5826084BDC4
:1012400084B5816084BD85B5826085BD85B58160CA
:1012500085BD80916E00816080936E001092810048
:101260008091810082608093810080918100816003
:1012700080938100809180008160809380008091C4
:10128000B10084608093B1008091B0008160809350
:10129000B00080917A00846080937A0080917A0017
:1012A000826080937A0080917A00816080937A00D6
:1012B00080917A00806880937A001092C100109229
:1012C0005403109255031092560310925703109234
:1012D00014031092150310921603109217030E9424
:1012E0009F024B015C017C016B0128EBC20E2BE0DD
:1012F000D21EE11CF11C0E949F02681579058A0527
:101300009B0528F0C616D706E806F906A0F768EE92
:1013100073E080E090E00E946D020E949E000E94B7
:101320009F026093140370931503809316039093A8
:10133000170383E391E00E9453050E949F024B0133
:101340005C017C016B013AE0C30ED11CE11CF11C75
:101350000E949F02681579058A059B0528F0C6162C
:10136000D706E806F906A0F741E0409328030E945B
:101370009F02609314037093150380931603909358
:10138000170384E491E00E945305109268021092C2
:1013900067021092F80110921A020E94D2028AE1AA
:1013A00091E09093B1018093B0018BE191E0909333
:1013B000AF018093AE0151E05093F70188E680932E
:1013C00019028BE690E00E944B0590E080E00E94BD
:1013D0004B0581E00E94E90381E08093F7011092C0
:1013E000F80110921A028BE190E00E944B0580E117
:1013F00090E00E944B0581E00E94E90391E0909308
:10140000F7011092F80110921A028CE190E00E940C
:101410004B0580E190E00E944B0581E00E94E903CA
:101420000E949E000E949F020E94DD0F6093EF01C8
:101430007093F0018093F1019093F201A091B401B7
:10144000B091B501BE8FAD8FAB2B09F010C101E09B
:1014500018E60093F701109319021092F801109208
:101460001A028BE390E00E944B0580E00E94E903A2
:1014700041E066E088E60E941103109268028093C2
:1014800067020E94D900F82E0E94D900FA821982C0
:1014900029813A81822B932BBC01990F880B990BE0
:1014A0000E94DF0F20E030E040E859E30E943E1048
:1014B0002B013C014092CF015092D0016092D101AA
:1014C0007092D2010E94D900F82E0E94D900FE82AB
:1014D0001D824D815E81842B952BBC01990F880B59
:1014E000990B0E94DF0F20E030E040E859E30E94B2
:1014F0003E106B017C01C092CB01D092CC01E092F6
:10150000CD01F092CE010E94D900B82E0E94D900E0
:10151000BA861986A985BA858A2B9B2BBC01990F9F
:10152000880B990B0E94DF0F20E030E040E859E380
:101530000E943E109B01AC010E943E106D877E8789
:101540008F87988BA3019201C301B2010E943E10C4
:101550002D853E854F8558890E941F110E949C123F
:101560009B01AC01C701B6010E94BA110E948B1108
:1015700020EE3EE245E652E40E943E102091C70173
:101580003091C8014091C9015091CA010E941F11B8
:101590004B015C018092C7019092C801A092C901E1
:1015A000B092CA01A7019601C701B6010E943E1080
:1015B0002D853E854F8558890E941F110E949C12DF
:1015C0009B01AC01C301B20190580E94BA110E9464
:1015D0008B1120EE3EE245E652E40E943E1020913F
:1015E000C3013091C4014091C5015091C6010E94D0
:1015F0001F116B017C01C092C301D092C401E09223
:10160000C501F092C6012D8D3E8D273C310531F587
:1016100020E030E048E453E4C501B4010E94BA116F
:101620006093C7017093C8018093C9019093CA0168
:1016300020E030E048E453E4C701B6010E94BA114B
:101640006093C3017093C4018093C5019093C60158
:1016500041E050E05093B5014093B4018D8D9E8DD3
:1016600001969E8F8D8F883C910509F0F2CEA09156
:10167000B201B091B301BA83A983AB2B09F0B2C018
:10168000DD24D39448E6C42EEE24E394F12CD092CA
:10169000F701C09219021092F80110921A0283E425
:1016A00090E00E944B0580E00E94E90341E064E085
:1016B00088E60E94110310926802809367020E94DC
:1016C000D900182F0E94D900212C8229912BBC010E
:1016D000990F880B990B0E94DF0F4B015C018092E0
:1016E000E3019092E401A092E501B092E6010E942C
:1016F000D900782E0E94D9008C0123E333E343E024
:1017000052E4C501B4010E94BA112091DF01309169
:10171000E0014091E1015091E2010E941F114B0153
:101720005C018092DF019092E001A092E101B09211
:10173000E2017A8A198A69897A89602B712B072ECE
:10174000000C880B990B0E94DF0F23E333E343E087
:1017500052E40E94BA112091DB013091DC014091EA
:10176000DD015091DE010E941F112B013C014092CE
:10177000DB015092DC016092DD017092DE01298173
:101780003A81273C310521F520E030E048E453E47C
:10179000C501B4010E94BA116093DF017093E001AA
:1017A0008093E1019093E20120E030E048E453E4CB
:1017B000C301B2010E94BA116093DB017093DC0196
:1017C0008093DD019093DE01F092B301E092B201CB
:1017D00049815A814F5F5F4F5A834983483C510585
:1017E00009F055CFEEEDF0E02491EAECF0E08491C1
:1017F000882399F090E0880F991FFC01EC54FF4F6B
:10180000A591B491FC01E655FF4F859194918FB756
:10181000F894EC912E2B2C938FBF8CB580648CBDEB
:101820001092BA018CB580688CBD11E080E0282E42
:1018300080E0382E0E949F02672B682B692B09F4E9
:10184000F5C00E949F02C090F301D090F401E09097
:10185000F501F090F6016C157D058E059F0508F4E5
:1018600078C3C090F301D090F401E090F501F090BE
:10187000F6019B01AC012C193D094E095F09690174
:101880007A0138EEC31633E0D306E104F10408F41C
:10189000D5C06093F3017093F4018093F5019093A8
:1018A000F60184EF91E0A0E0B0E0809320039093F4
:1018B0002103A0932203B0932303109224031092D8
:1018C000250310922603109227038091180390910C
:1018D0001903A0911A03B0911B0380931C039093EA
:1018E0001D03A0931E03B0931F030E949F026093E9
:1018F00018037093190380931A0390931B0389E6CE
:1019000092E00E943F01843611F40E946E060E940C
:101910009F026093140370931503809316039093B2
:1019200017030E949F026B017C018BE491E00E94EF
:1019300053054AE061E070E080E090E00E946005BD
:1019400082E591E00E9453054AE0C701B6010E947A
:10195000600584E591E00E94530580911803909101
:101960001903A0911A03B0911B03A7019601281B2C
:10197000390B4A0B5B0BCA01B9014AE00E946005B2
:1019800084E591E00E94530560911803709119035A
:1019900080911A0390911B03C0901C03D0901D03EB
:1019A000E0901E03F0901F036C197D098E099F09BA
:1019B0004AE00E94600586E591E00E9453050E947E
:1019C0009F024AE00E94600588E591E00E9453056D
:1019D00080E391E00E9453050E949F024B015C014D
:1019E0007C016B0135E0C30ED11CE11CF11C0E948F
:1019F0009F02681579058A059B0528F0C616D7064B
:101A0000E806F906A0F789E692E00E943F018436D5
:101A100011F40E946E060E949F0260931803709357
:101A2000190380931A0390931B0308C00E949F021E
:101A3000623071058105910508F003CFC090EF0178
:101A4000D090F001E090F101F090F201C092EB0132
:101A5000D092EC01E092ED01F092EE010E949F0223
:101A60000E94DD0F6093EF017093F0018093F1010C
:101A70009093F201A70196010E941E1120E030E030
:101A80004AE754E40E94BA114B015C018092E701DD
:101A90009092E801A092E901B092EA011093F70157
:101AA00048E6409319021092F80110921A0283E45A
:101AB00090E00E944B0580E00E94E90341E064E071
:101AC00088E60E94110310926802809367020E94C8
:101AD000D900D82E0E94D9007C010E94D900082F7D
:101AE0000E94D9009A838983DC8A1B8A6B897C894E
:101AF0006E297F29072E000C880B990B0E94DF0F9F
:101B000023E333E343E052E40E94BA112091DF0162
:101B10003091E0014091E1015091E2010E941E11DB
:101B20002B013C014092E3015092E4016092E501F7
:101B30007092E6010E8B1D8A6D897E8989819A815A
:101B4000682B792B072E000C880B990B0E94DF0F56
:101B500023E333E343E052E40E94BA112091DB0116
:101B60003091DC014091DD015091DE010E941E1197
:101B70006B017C01A3019201C501B4010E943E10DA
:101B800069837A838B839C836093D7017093D80198
:101B90008093D9019093DA01A7019601C501B401A0
:101BA0000E943E102B013C014092D3015092D4017F
:101BB0006092D5017092D6011093F7011092F8014E
:101BC00010921A028BE390E00E944B0580E00E9485
:101BD000E90341E066E088E60E9411031092680282
:101BE000809367020E94D9008D830E94D900AD8145
:101BF000A88F1F8A2F89388D822B932BBC01990FB8
:101C0000880B990B0E94DF0F20E030E040E859E399
:101C10000E943E104B015C018092CF019092D00156
:101C2000A092D101B092D2010E94D9008D830E946E
:101C3000D9003D813A8F198E498D5A8D842B952B71
:101C4000BC01990F880B990B0E94DF0F20E030E058
:101C500040E859E30E943E106B017C01C092CB0129
:101C6000D092CC01E092CD01F092CE010E94D90039
:101C70008D830E94D9005D815C8F1B8EAB8DBC8DE6
:101C80008A2B9B2BBC01990F880B990B0E94DF0FAD
:101C900020E030E040E859E30E943E109B01AC0197
:101CA0000E943E106D837E838F839887A5019401E7
:101CB000C501B4010E943E102D813E814F8158859F
:101CC0000E941F110E949C129B01AC01C701B6012A
:101CD0000E94BA110E948B1169877A878B879C8733
:101CE000A7019601C701B6010E943E102D813E81D9
:101CF0004F8158850E941F110E949C129B01AC01CC
:101D0000C501B40190580E94BA110E948B1120EEB7
:101D10003EE245E652E40E943E102091C30130911C
:101D2000C4014091C5015091C6010E941E116B0172
:101D30007C0120EE3EE245E652E469857A858B859A
:101D40009C850E943E102091C7013091C8014091AE
:101D5000C9015091CA010E941E112AE037ED43EAE1
:101D60005CE30E943E104B015C012091BF01309169
:101D7000C0014091C1015091C20169817A818B817A
:101D80009C810E941F1128E431EE4AE75FE30E9424
:101D90003E109B01AC01C501B4010E941F114B0113
:101DA0005C018092BF019092C001A092C101B092EB
:101DB000C2012091BB013091BC014091BD01509105
:101DC000BE01C301B2010E941F1128E431EE4AE7AF
:101DD0005FE30E943E102B013C012AE037ED43EA0D
:101DE0005CE3C701B6010E943E109B01AC01C30138
:101DF000B2010E941F116B017C01C092BB01D09205
:101E0000BC01E092BD01F092BE018091BA0188232D
:101E100009F493C020E030E044EB52E4C501B40182
:101E20000E941F1129E134E046E35FE30E943E1067
:101E30004B015C0120E030E0A9010E94891287FD7E
:101E40002FC020E030E040E053E4C501B4010E941F
:101E5000D80F18162CF1C501B4010E942C12072EC0
:101E6000000C880B990B0E94DF0F6093B6017093F2
:101E7000B7018093B8019093B9010E94A4056091C5
:101E8000B6017091B7018091B8019091B9010E949B
:101E900033126EBD64E670E080E090E00E946D0257
:101EA00020E030E044EB52E4C701B6010E941F116C
:101EB00029E134E046E35FE30E943E1020E030E099
:101EC00040E053E40E941F116B017C0120E030E0F0
:101ED00040E053E40E94891218167CF520E030E0BF
:101EE00040E853E4C701B6010E94D80F18162CF140
:101EF000C701B6010E942C12072E000C880B990B0B
:101F00000E94DF0F6093B6017093B7018093B80110
:101F10009093B9010E94A4056091B6017091B70138
:101F20008091B8019091B9010E9433126EBD64E6B0
:101F300070E080E090E00E946D022114310409F409
:101F400079CC0E945901882309F474CC0E940000C6
:101F500071CC6093F3017093F4018093F501909339
:101F6000F6017FCCFC0188279927E8942191203243
:101F7000E9F3293010F02E30C8F32B3241F02D3226
:101F800039F4689404C00E94D00F820F911D2191F2
:101F900020532A30C0F31EF4909581959F4F0895E9
:101FA0007AE0979F902D879F802D910D11240895A1
:101FB0000E941A1008F481E00895E89409C097FB84
:101FC0003EF490958095709561957F4F8F4F9F4F10
:101FD0009923A9F0F92F96E9BB279395F695879554
:101FE00077956795B795F111F8CFFAF4BB0F11F417
:101FF00060FF1BC06F5F7F4F8F4F9F4F16C08823BE
:1020000011F096E911C0772321F09EE8872F762FF3
:1020100005C0662371F096E8862F70E060E02AF034
:102020009A95660F771F881FDAF7880F9695879520
:1020300097F90895990F0008550FAA0BE0E8FEEFF5
:1020400016161706E807F907C0F012161306E4077C
:10205000F50798F0621B730B840B950B39F40A2675
:1020600061F0232B242B252B21F408950A2609F453
:10207000A140A6958FEF811D811D08950E945110EA
:102080000C94C2100E94B41038F00E94BB1020F0D3
:10209000952311F00C94AB100C94B11011240C94F6
:1020A000F6100E94D31070F3959FC1F3950F50E086
:1020B000551F629FF001729FBB27F00DB11D639FFA
:1020C000AA27F00DB11DAA1F649F6627B00DA11DA0
:1020D000661F829F2227B00DA11D621F739FB00D46
:1020E000A11D621F839FA00D611D221F749F3327B6
:1020F000A00D611D231F849F600D211D822F762F4F
:102100006A2F11249F5750409AF0F1F088234AF02B
:10211000EE0FFF1FBB1F661F771F881F9150504097
:10212000A9F79E3F510580F00C94AB100C94F6106B
:102130005F3FE4F3983ED4F3869577956795B7951E
:10214000F795E7959F5FC1F7FE2B880F911D969538
:10215000879597F9089597F99F6780E870E060E0A8
:1021600008959FEF80EC089500240A941616170630
:1021700018060906089500240A9412161306140678
:1021800005060895092E0394000C11F4882352F0DB
:10219000BB0F40F4BF2B11F460FF04C06F5F7F4F93
:1021A0008F4F9F4F089557FD9058440F551F59F07A
:1021B0005F3F71F04795880F97FB991F61F09F3F34
:1021C00079F087950895121613061406551FF2CF5D
:1021D0004695F1DF08C0161617061806991FF1CFAD
:1021E00086957105610508940895E894BB276627D4
:1021F0007727CB0197F90895A1E21A2EAA1BBB1BE2
:10220000FD010DC0AA1FBB1FEE1FFF1FA217B307C2
:10221000E407F50720F0A21BB30BE40BF50B661FD8
:10222000771F881F991F1A9469F76095709580959C
:1022300090959B01AC01BD01CF0108955058BB277B
:10224000AA270E9436110C94C2100E94B41038F0D4
:102250000E94BB1020F039F49F3F19F426F40C942F
:10226000B1100EF4E095E7FB0C94AB10E92F0E943F
:10227000D31058F3BA17620773078407950720F045
:1022800079F4A6F50C94F5100EF4E0950B2EBA2F08
:10229000A02D0B01B90190010C01CA01A00111246C
:1022A000FF27591B99F0593F50F4503E68F11A1618
:1022B000F040A22F232F342F4427585FF3CF4695A9
:1022C00037952795A795F0405395C9F77EF41F16CB
:1022D000BA0B620B730B840BBAF09150A1F0FF0F95
:1022E000BB1F661F771F881FC2F70EC0BA0F621F81
:1022F000731F841F48F4879577956795B795F79571
:102300009E3F08F0B0CF9395880F08F09927EE0F05
:10231000979587950895DF93DD27B92FBF7740E81C
:102320005FE31616170648075B0718F4D92F0E94BB
:102330008E129F938F937F936F930E94DC12E8E637
:10234000F0E00E9462120E94C2102F913F914F91C3
:102350005F910E945110DD2351F09058A2EA2AEDBE
:102360003FE049EC5FE3D0785D270E943611DF91B2
:102370000C94C2100E94CE110C94C2100E94BB108B
:1023800058F00E94B41040F029F45F3F29F00C94FB
:10239000AB1051110C94F6100C94B1100E94D31094
:1023A00068F39923B1F3552391F3951B550BBB2784
:1023B000AA2762177307840738F09F5F5F4F220FC9
:1023C000331F441FAA1FA9F335D00E2E3AF0E0E8C0
:1023D00032D091505040E695001CCAF72BD0FE2F0A
:1023E00029D0660F771F881FBB1F2617370748079E
:1023F000AB07B0E809F0BB0B802DBF01FF27935856
:102400005F4F3AF09E3F510578F00C94AB100C945E
:10241000F6105F3FE4F3983ED4F386957795679581
:10242000B795F7959F5FC9F7880F911D969587958A
:1024300097F90895E1E0660F771F881FBB1F6217A9
:1024400073078407BA0720F0621B730B840BBA0B67
:10245000EE1F88F7E09508950E9433126894B11139
:102460000C94F61008950E94DB1088F09F5798F0A6
:10247000B92F9927B751B0F0E1F0660F771F881F89
:10248000991F1AF0BA95C9F714C0B13091F00E94A3
:10249000F510B1E008950C94F510672F782F882778
:1024A000B85F39F0B93FCCF3869577956795B395CA
:1024B000D9F73EF490958095709561957F4F8F4F39
:1024C0009F4F0895DF93CF931F930F93FF92EF9247
:1024D000DF927B018C01689406C0DA2EEF010E9426
:1024E0005110FE01E894A5912591359145915591A2
:1024F000A6F3EF010E943611FE019701A801DA94BC
:1025000069F7DF90EF90FF900F911F91CF91DF91CE
:1025100008950E941A1008F48FEF08959B01AC01F2
:1025200060E070E080E89FE30C94BA1119F416F4AF
:102530000C94B1100C94E5120E94DB10B8F39923AF
:10254000C9F3B6F39F57550B87FF0E94F31200247F
:10255000A0E640EA900180585695979528F4805C53
:10256000660F771F881F20F026173707480730F4BB
:10257000621B730B840B202931294A2BA6951794D3
:102580000794202531254A2758F7660F771F881FA3
:1025900020F026173707480730F4620B730B840BC3
:1025A000200D311D411DA09581F7B901842F91584F
:1025B000880F9695879508959B01AC010C943E1069
:1025C0000E941A10880B990B08959F3F31F091508B
:1025D00020F4879577956795B795880F911D969507
:1025E000879597F9089591505040660F771F881F7F
:1025F000D2F70895EE0FFF1F0590F491E02D099496
:04260000F894FFCF7C
:10260400000000008F01EC001C01DC014D012B01D6
:102614003F01000000001C05EF0450051901E80407
:10262400C600D9046E616E00696E66006F7666003E
:102634000D0A00564D4450565F317C315F564D446F
:1026440050560A00564D4450525F00564D44504572
:102654005F003A323A007C005F564D44504500001A
:00000001FF
